{
  "contractName": "RedSocial",
  "abi": [
    {
      "anonymous": false,
      "inputs": [
        {
          "indexed": false,
          "internalType": "uint256",
          "name": "id",
          "type": "uint256"
        },
        {
          "indexed": false,
          "internalType": "string",
          "name": "content",
          "type": "string"
        },
        {
          "indexed": false,
          "internalType": "address",
          "name": "author",
          "type": "address"
        },
        {
          "indexed": false,
          "internalType": "uint256",
          "name": "tipAmount",
          "type": "uint256"
        }
      ],
      "name": "PostCreated",
      "type": "event"
    },
    {
      "inputs": [],
      "name": "postCount",
      "outputs": [
        {
          "internalType": "uint256",
          "name": "",
          "type": "uint256"
        }
      ],
      "stateMutability": "view",
      "type": "function",
      "constant": true
    },
    {
      "inputs": [
        {
          "internalType": "uint256",
          "name": "",
          "type": "uint256"
        }
      ],
      "name": "posts",
      "outputs": [
        {
          "internalType": "uint256",
          "name": "id",
          "type": "uint256"
        },
        {
          "internalType": "string",
          "name": "content",
          "type": "string"
        },
        {
          "internalType": "address",
          "name": "author",
          "type": "address"
        },
        {
          "internalType": "uint256",
          "name": "tipAmount",
          "type": "uint256"
        }
      ],
      "stateMutability": "view",
      "type": "function",
      "constant": true
    },
    {
      "inputs": [
        {
          "internalType": "string",
          "name": "_content",
          "type": "string"
        }
      ],
      "name": "createPost",
      "outputs": [],
      "stateMutability": "nonpayable",
      "type": "function"
    }
  ],
  "bytecode": "0x608060405234801561001057600080fd5b5061055c806100206000396000f3fe608060405234801561001057600080fd5b50600436106100415760003560e01c80630b1e7f831461004657806317906c2e14610118578063c7303c6114610136575b600080fd5b6100726004803603602081101561005c57600080fd5b81019080803590602001909291905050506101f1565b60405180858152602001806020018473ffffffffffffffffffffffffffffffffffffffff168152602001838152602001828103825285818151815260200191508051906020019080838360005b838110156100da5780820151818401526020810190506100bf565b50505050905090810190601f1680156101075780820380516001836020036101000a031916815260200191505b509550505050505060405180910390f35b6101206102d9565b6040518082815260200191505060405180910390f35b6101ef6004803603602081101561014c57600080fd5b810190808035906020019064010000000081111561016957600080fd5b82018360208201111561017b57600080fd5b8035906020019184600183028401116401000000008311171561019d57600080fd5b91908080601f016020809104026020016040519081016040528093929190818152602001838380828437600081840152601f19601f8201169050808301925050505050505091929192905050506102df565b005b6001602052806000526040600020600091509050806000015490806001018054600181600116156101000203166002900480601f0160208091040260200160405190810160405280929190818152602001828054600181600116156101000203166002900480156102a35780601f10610278576101008083540402835291602001916102a3565b820191906000526020600020905b81548152906001019060200180831161028657829003601f168201915b5050505050908060020160009054906101000a900473ffffffffffffffffffffffffffffffffffffffff16908060030154905084565b60005481565b6000808154809291906001019190505550604051806080016040528060005481526020018281526020013373ffffffffffffffffffffffffffffffffffffffff16815260200160008152506001600080548152602001908152602001600020600082015181600001556020820151816001019080519060200190610364929190610489565b5060408201518160020160006101000a81548173ffffffffffffffffffffffffffffffffffffffff021916908373ffffffffffffffffffffffffffffffffffffffff160217905550606082015181600301559050507fb4af4b9562ae3030a4905c2c59e4d1a62b4e502925d1c337efa53dca6127d5476000548233600060405180858152602001806020018473ffffffffffffffffffffffffffffffffffffffff168152602001838152602001828103825285818151815260200191508051906020019080838360005b8381101561044957808201518184015260208101905061042e565b50505050905090810190601f1680156104765780820380516001836020036101000a031916815260200191505b509550505050505060405180910390a150565b828054600181600116156101000203166002900490600052602060002090601f016020900481019282601f106104ca57805160ff19168380011785556104f8565b828001600101855582156104f8579182015b828111156104f75782518255916020019190600101906104dc565b5b5090506105059190610509565b5090565b5b8082111561052257600081600090555060010161050a565b509056fea2646970667358221220086d651b30d2134dded9c4edb479497d2154f92aa953ecfa172a265c09df7a3a64736f6c63430007000033",
  "immutableReferences": {},
  "source": "pragma solidity 0.7.0;\n\ncontract RedSocial {\n    uint public postCount;\n    struct Post {\n        uint id;\n        string content;\n        address author;\n        uint tipAmount;\n    }\n    mapping (uint  => Post  ) public posts;\n\n    event PostCreated(\n            uint id,\n            string content,\n            address author,\n            uint tipAmount\n        );\n\n    function createPost (string memory _content) public {\n         postCount++;\n         posts[postCount] = Post(postCount,_content,msg.sender,0);\n         emit PostCreated(postCount,_content,msg.sender,0);\n    }\n}",
  "sourcePath": "/home/david/Escritorio/programacion/blockchain/solidity-pruebas/solidity/contracts/RedSocial.sol",
  "compiler": {
    "name": "solc",
    "version": "0.7.0+commit.9e61f92b.Emscripten.clang"
  },
  "schemaVersion": "3.3.1",
  "updatedAt": "2020-10-24T19:40:25.344Z",
  "networkType": "ethereum",
  "devdoc": {
    "kind": "dev",
    "methods": {},
    "version": 1
  },
  "userdoc": {
    "kind": "user",
    "methods": {},
    "version": 1
  }
}